{
  "contractName": "Adoption",
  "abi": [
    {
      "constant": false,
      "inputs": [
        {
          "name": "_id",
          "type": "uint256"
        }
      ],
      "name": "setAdopters",
      "outputs": [
        {
          "name": "",
          "type": "uint256"
        }
      ],
      "payable": false,
      "stateMutability": "nonpayable",
      "type": "function"
    },
    {
      "constant": false,
      "inputs": [
        {
          "name": "_id",
          "type": "uint256"
        }
      ],
      "name": "revertOwnership",
      "outputs": [
        {
          "name": "",
          "type": "uint256"
        }
      ],
      "payable": false,
      "stateMutability": "nonpayable",
      "type": "function"
    },
    {
      "constant": true,
      "inputs": [],
      "name": "getAdopters",
      "outputs": [
        {
          "name": "",
          "type": "address[16]"
        }
      ],
      "payable": false,
      "stateMutability": "view",
      "type": "function"
    }
  ],
  "bytecode": "0x608060405234801561001057600080fd5b506103e9806100206000396000f3fe608060405260043610610051576000357c0100000000000000000000000000000000000000000000000000000000900480633de4eb171461005657806370c5fc8d146100815780639a087d29146100be575b600080fd5b34801561006257600080fd5b5061006b6100fb565b6040516100789190610310565b60405180910390f35b34801561008d57600080fd5b506100a860048036036100a3919081019061027e565b61017c565b6040516100b5919061032c565b60405180910390f35b3480156100ca57600080fd5b506100e560048036036100e0919081019061027e565b6101e1565b6040516100f2919061032c565b60405180910390f35b610103610246565b6000601080602002604051908101604052809291908260108015610172576020028201915b8160009054906101000a900473ffffffffffffffffffffffffffffffffffffffff1673ffffffffffffffffffffffffffffffffffffffff1681526020019060010190808311610128575b5050505050905090565b600080821015151561018a57fe5b3360008360108110151561019a57fe5b0160006101000a81548173ffffffffffffffffffffffffffffffffffffffff021916908373ffffffffffffffffffffffffffffffffffffffff160217905550819050919050565b60008082101515156101ef57fe5b600080836010811015156101ff57fe5b0160006101000a81548173ffffffffffffffffffffffffffffffffffffffff021916908373ffffffffffffffffffffffffffffffffffffffff160217905550819050919050565b61020060405190810160405280601090602082028038833980820191505090505090565b600061027682356103a5565b905092915050565b60006020828403121561029057600080fd5b600061029e8482850161026a565b91505092915050565b6102b081610369565b82525050565b6102bf81610351565b6102c882610347565b60005b828110156102fa576102de8583516102a7565b6102e78261035c565b91506020850194506001810190506102cb565b5050505050565b61030a8161039b565b82525050565b60006102008201905061032660008301846102b6565b92915050565b60006020820190506103416000830184610301565b92915050565b6000819050919050565b600060109050919050565b6000602082019050919050565b60006103748261037b565b9050919050565b600073ffffffffffffffffffffffffffffffffffffffff82169050919050565b6000819050919050565b600081905091905056fea265627a7a723058206df1c22f8cb4c616bd4f325e13c8bd0446138e339d43853b25d20091a01474616c6578706572696d656e74616cf50037",
  "source": "// SPDX-License-Identifier: MIT\npragma solidity >=0.4.22 <0.9.0;\npragma experimental ABIEncoderV2;\ncontract Adoption {\n  address[16] adopters;\n\n  function setAdopters(uint _id) public returns (uint) {\n    assert(_id >= 0);\n\n    adopters[_id] = msg.sender;\n\n    return _id;\n  }\n\n  function revertOwnership(uint _id) public returns (uint) {\n    assert(_id >= 0);\n\n    adopters[_id] = address(0x0000000000000000000000000000000000000000);\n\n    return _id;\n  }\n\n  function getAdopters() public view returns (address[16] memory){\n    return adopters;\n  }\n\n}\n",
  "sourcePath": "C:\\Petanimal\\blockchain\\contracts\\Adoption.sol",
  "compiler": {
    "name": "solc",
    "version": "0.5.1+commit.c8a2cb62.Emscripten.clang"
  },
  "schemaVersion": "3.4.16",
  "updatedAt": "2024-01-03T05:48:03.317Z",
  "networkType": "ethereum",
  "devdoc": {
    "methods": {}
  },
  "userdoc": {
    "methods": {}
  }
}